{
  "contractName": "ContractName",
  "abi": [
    {
      "constant": true,
      "inputs": [],
      "name": "name",
      "outputs": [
        {
          "name": "",
          "type": "string"
        }
      ],
      "payable": false,
      "stateMutability": "view",
      "type": "function"
    },
    {
      "constant": false,
      "inputs": [],
      "name": "renounceOwnership",
      "outputs": [],
      "payable": false,
      "stateMutability": "nonpayable",
      "type": "function"
    },
    {
      "constant": true,
      "inputs": [],
      "name": "owner",
      "outputs": [
        {
          "name": "",
          "type": "address"
        }
      ],
      "payable": false,
      "stateMutability": "view",
      "type": "function"
    },
    {
      "constant": true,
      "inputs": [],
      "name": "isOwner",
      "outputs": [
        {
          "name": "",
          "type": "bool"
        }
      ],
      "payable": false,
      "stateMutability": "view",
      "type": "function"
    },
    {
      "constant": false,
      "inputs": [
        {
          "name": "newOwner",
          "type": "address"
        }
      ],
      "name": "transferOwnership",
      "outputs": [],
      "payable": false,
      "stateMutability": "nonpayable",
      "type": "function"
    },
    {
      "inputs": [
        {
          "name": "_name",
          "type": "string"
        }
      ],
      "payable": false,
      "stateMutability": "nonpayable",
      "type": "constructor"
    },
    {
      "payable": false,
      "stateMutability": "nonpayable",
      "type": "fallback"
    },
    {
      "anonymous": false,
      "inputs": [
        {
          "indexed": true,
          "name": "previousOwner",
          "type": "address"
        },
        {
          "indexed": true,
          "name": "newOwner",
          "type": "address"
        }
      ],
      "name": "OwnershipTransferred",
      "type": "event"
    },
    {
      "constant": false,
      "inputs": [
        {
          "name": "_newName",
          "type": "string"
        }
      ],
      "name": "accessRestricted",
      "outputs": [],
      "payable": false,
      "stateMutability": "nonpayable",
      "type": "function"
    }
  ],
  "bytecode": "0x608060405234801561001057600080fd5b506040516109da3803806109da8339810180604052602081101561003357600080fd5b81019080805164010000000081111561004b57600080fd5b8281019050602081018481111561006157600080fd5b815185600182028301116401000000008211171561007e57600080fd5b5050929190505050336000806101000a81548173ffffffffffffffffffffffffffffffffffffffff021916908373ffffffffffffffffffffffffffffffffffffffff1602179055506000809054906101000a900473ffffffffffffffffffffffffffffffffffffffff1673ffffffffffffffffffffffffffffffffffffffff16600073ffffffffffffffffffffffffffffffffffffffff167f8be0079c531659141344cd1fd0a4f28419497f9722a3daafe3b4186f6b6457e060405160405180910390a333600160006101000a81548173ffffffffffffffffffffffffffffffffffffffff021916908373ffffffffffffffffffffffffffffffffffffffff16021790555080600290805190602001906101999291906101a0565b5050610245565b828054600181600116156101000203166002900490600052602060002090601f016020900481019282601f106101e157805160ff191683800117855561020f565b8280016001018555821561020f579182015b8281111561020e5782518255916020019190600101906101f3565b5b50905061021c9190610220565b5090565b61024291905b8082111561023e576000816000905550600101610226565b5090565b90565b610786806102546000396000f3fe608060405260043610610078576000357c0100000000000000000000000000000000000000000000000000000000900463ffffffff16806306fdde0314610087578063715018a61461011757806385ea97861461012e5780638da5cb5b146101f65780638f32d59b1461024d578063f2fde38b1461027c575b34801561008457600080fd5b50005b34801561009357600080fd5b5061009c6102cd565b6040518080602001828103825283818151815260200191508051906020019080838360005b838110156100dc5780820151818401526020810190506100c1565b50505050905090810190601f1680156101095780820380516001836020036101000a031916815260200191505b509250505060405180910390f35b34801561012357600080fd5b5061012c61036b565b005b34801561013a57600080fd5b506101f46004803603602081101561015157600080fd5b810190808035906020019064010000000081111561016e57600080fd5b82018360208201111561018057600080fd5b803590602001918460018302840111640100000000831117156101a257600080fd5b91908080601f016020809104026020016040519081016040528093929190818152602001838380828437600081840152601f19601f82011690508083019250505050505050919291929050505061043d565b005b34801561020257600080fd5b5061020b61051c565b604051808273ffffffffffffffffffffffffffffffffffffffff1673ffffffffffffffffffffffffffffffffffffffff16815260200191505060405180910390f35b34801561025957600080fd5b50610262610545565b604051808215151515815260200191505060405180910390f35b34801561028857600080fd5b506102cb6004803603602081101561029f57600080fd5b81019080803573ffffffffffffffffffffffffffffffffffffffff16906020019092919050505061059c565b005b60028054600181600116156101000203166002900480601f0160208091040260200160405190810160405280929190818152602001828054600181600116156101000203166002900480156103635780601f1061033857610100808354040283529160200191610363565b820191906000526020600020905b81548152906001019060200180831161034657829003601f168201915b505050505081565b610373610545565b151561037e57600080fd5b600073ffffffffffffffffffffffffffffffffffffffff166000809054906101000a900473ffffffffffffffffffffffffffffffffffffffff1673ffffffffffffffffffffffffffffffffffffffff167f8be0079c531659141344cd1fd0a4f28419497f9722a3daafe3b4186f6b6457e060405160405180910390a360008060006101000a81548173ffffffffffffffffffffffffffffffffffffffff021916908373ffffffffffffffffffffffffffffffffffffffff160217905550565b3373ffffffffffffffffffffffffffffffffffffffff16600160009054906101000a900473ffffffffffffffffffffffffffffffffffffffff1673ffffffffffffffffffffffffffffffffffffffff16141515610502576040517f08c379a000000000000000000000000000000000000000000000000000000000815260040180806020018281038252601d8152602001807f54686973206973206120726573747269637465642066756e6374696f6e00000081525060200191505060405180910390fd5b80600290805190602001906105189291906106b5565b5050565b60008060009054906101000a900473ffffffffffffffffffffffffffffffffffffffff16905090565b60008060009054906101000a900473ffffffffffffffffffffffffffffffffffffffff1673ffffffffffffffffffffffffffffffffffffffff163373ffffffffffffffffffffffffffffffffffffffff1614905090565b6105a4610545565b15156105af57600080fd5b6105b8816105bb565b50565b600073ffffffffffffffffffffffffffffffffffffffff168173ffffffffffffffffffffffffffffffffffffffff16141515156105f757600080fd5b8073ffffffffffffffffffffffffffffffffffffffff166000809054906101000a900473ffffffffffffffffffffffffffffffffffffffff1673ffffffffffffffffffffffffffffffffffffffff167f8be0079c531659141344cd1fd0a4f28419497f9722a3daafe3b4186f6b6457e060405160405180910390a3806000806101000a81548173ffffffffffffffffffffffffffffffffffffffff021916908373ffffffffffffffffffffffffffffffffffffffff16021790555050565b828054600181600116156101000203166002900490600052602060002090601f016020900481019282601f106106f657805160ff1916838001178555610724565b82800160010185558215610724579182015b82811115610723578251825591602001919060010190610708565b5b5090506107319190610735565b5090565b61075791905b8082111561075357600081600090555060010161073b565b5090565b9056fea165627a7a723058207f8615ac6822346c8f50c9587d01881bcac87c201ba8c12c730aec2180da5f730029",
  "source": "pragma solidity ^0.5.0;\r\n\r\nimport \"../node_modules/openzeppelin-solidity/contracts/ownership/Ownable.sol\";\r\n\r\ncontract ContractName is Ownable {\r\n    address private Owner;\r\n    string public name;\r\n\r\n    modifier onlyOnwer() {\r\n        require(Owner==msg.sender, \"This is a restricted function\");\r\n        _;\r\n    }\r\n\r\n    constructor(string memory _name) public {\r\n        Owner = msg.sender;\r\n        name = _name;\r\n    }\r\n\r\n    function accessRestricted(string memory _newName) \r\n        public\r\n        onlyOnwer()\r\n    {\r\n        name = _newName;\r\n    }\r\n\r\n    /**\r\n      * @dev Fallback function, for if a function is\r\n      *     called on the contract, that dose not exist.\r\n      * @notice With mistaken funds the contract... ~TODO~\r\n      */\r\n    function() external {\r\n\r\n    }\r\n}",
  "sourcePath": "C:/Users/Veronica Coutts/Desktop/Desktop/Work/Ethereum/Educational/ContractFramework/contracts/ContractName.sol",
  "compiler": {
    "name": "solc",
    "version": "0.5.0+commit.1d4f565a.Emscripten.clang"
  },
  "schemaVersion": "3.0.1",
  "updatedAt": "2019-01-18T20:42:56.929Z",
  "devdoc": {
    "methods": {
      "isOwner()": {
        "return": "true if `msg.sender` is the owner of the contract."
      },
      "owner()": {
        "return": "the address of the owner."
      },
      "renounceOwnership()": {
        "details": "Allows the current owner to relinquish control of the contract."
      },
      "transferOwnership(address)": {
        "details": "Allows the current owner to transfer control of the contract to a newOwner.",
        "params": {
          "newOwner": "The address to transfer ownership to."
        }
      }
    }
  },
  "userdoc": {
    "methods": {
      "renounceOwnership()": {
        "notice": "Renouncing to ownership will leave the contract without an owner. It will not be possible to call the functions with the `onlyOwner` modifier anymore."
      }
    }
  }
}