{
  "contractName": "BatchApprove",
  "abi": [
    {
      "inputs": [
        {
          "internalType": "address",
          "name": "_token",
          "type": "address"
        },
        {
          "internalType": "uint256",
          "name": "_amount",
          "type": "uint256"
        }
      ],
      "name": "oneTokenApprove",
      "outputs": [],
      "stateMutability": "nonpayable",
      "type": "function"
    }
  ],
  "bytecode": "0x608060405234801561001057600080fd5b5061017f806100206000396000f3fe608060405234801561001057600080fd5b506004361061002b5760003560e01c8063dcca4b4414610030575b600080fd5b61005c6004803603604081101561004657600080fd5b506001600160a01b03813516906020013561005e565b005b60408051306024820152604480820184905282518083039091018152606490910182526020810180516001600160e01b031663095ea7b360e01b1781529151815191926000926060926001600160a01b0388169286928291908083835b602083106100da5780518252601f1990920191602091820191016100bb565b6001836020036101000a038019825116818451168082178552505050505050905001915050600060405180830381855af49150503d806000811461013a576040519150601f19603f3d011682016040523d82523d6000602084013e61013f565b606091505b505050505050505056fea2646970667358221220580aadda9f8449123ec57e9f9e3e42b9f4afae2b58e4902c1d7832447bcb311164736f6c63430006060033",
  "source": "pragma solidity 0.6.6;\n\nimport \"../node_modules/openzeppelin-solidity/contracts/token/ERC20/IERC20.sol\";\n\ncontract BatchApprove {\n\n    /**\n     * So here we are just doing a standard single approve, getting the smart\n     * contract approved to spend the token.\n     */\n    function oneTokenApprove(address _token, uint256 _amount) public {\n        bytes memory payload = abi.encodeWithSignature(\n            \"approve(address,uint256)\", \n            address(this),\n            _amount\n        );\n\n        (bool status, bytes memory returnData) = _token.delegatecall(payload);\n        // _token.delegatecall(\n        //     bytes4(keccak256(\"approve(address,uint256)\")),\n        //     address(this),\n        //     _amount\n        // );\n    }\n\n    // _e.delegatecall(\n    //     bytes4(sha3(\"setN(uint256)\")),\n    //     _n\n    // );\n\n}",
  "sourcePath": "/Users/veronicac/Desktop/projects/Ethereum/Educational/batchApprove/contracts/BatchApprove.sol",
  "compiler": {
    "name": "solc",
    "version": "0.6.6+commit.6c089d02.Emscripten.clang",
    "optimizer": true,
    "runs": 100
  },
  "schemaVersion": "2.3.3",
  "updatedAt": "2020-08-30T20:03:37.821Z"
}