{
  "contractName": "Token",
  "abi": [
    {
      "inputs": [
        {
          "internalType": "string",
          "name": "tokenName",
          "type": "string"
        },
        {
          "internalType": "string",
          "name": "tokenSymbol",
          "type": "string"
        }
      ],
      "stateMutability": "nonpayable",
      "type": "constructor"
    },
    {
      "anonymous": false,
      "inputs": [
        {
          "indexed": true,
          "internalType": "address",
          "name": "owner",
          "type": "address"
        },
        {
          "indexed": true,
          "internalType": "address",
          "name": "spender",
          "type": "address"
        },
        {
          "indexed": false,
          "internalType": "uint256",
          "name": "value",
          "type": "uint256"
        }
      ],
      "name": "Approval",
      "type": "event"
    },
    {
      "anonymous": false,
      "inputs": [
        {
          "indexed": true,
          "internalType": "address",
          "name": "from",
          "type": "address"
        },
        {
          "indexed": true,
          "internalType": "address",
          "name": "to",
          "type": "address"
        },
        {
          "indexed": false,
          "internalType": "uint256",
          "name": "value",
          "type": "uint256"
        }
      ],
      "name": "Transfer",
      "type": "event"
    },
    {
      "inputs": [
        {
          "internalType": "address",
          "name": "owner",
          "type": "address"
        },
        {
          "internalType": "address",
          "name": "spender",
          "type": "address"
        }
      ],
      "name": "allowance",
      "outputs": [
        {
          "internalType": "uint256",
          "name": "",
          "type": "uint256"
        }
      ],
      "stateMutability": "view",
      "type": "function"
    },
    {
      "inputs": [
        {
          "internalType": "address",
          "name": "spender",
          "type": "address"
        },
        {
          "internalType": "uint256",
          "name": "amount",
          "type": "uint256"
        }
      ],
      "name": "approve",
      "outputs": [
        {
          "internalType": "bool",
          "name": "",
          "type": "bool"
        }
      ],
      "stateMutability": "nonpayable",
      "type": "function"
    },
    {
      "inputs": [
        {
          "internalType": "address",
          "name": "account",
          "type": "address"
        }
      ],
      "name": "balanceOf",
      "outputs": [
        {
          "internalType": "uint256",
          "name": "",
          "type": "uint256"
        }
      ],
      "stateMutability": "view",
      "type": "function"
    },
    {
      "inputs": [],
      "name": "decimals",
      "outputs": [
        {
          "internalType": "uint8",
          "name": "",
          "type": "uint8"
        }
      ],
      "stateMutability": "view",
      "type": "function"
    },
    {
      "inputs": [
        {
          "internalType": "address",
          "name": "spender",
          "type": "address"
        },
        {
          "internalType": "uint256",
          "name": "subtractedValue",
          "type": "uint256"
        }
      ],
      "name": "decreaseAllowance",
      "outputs": [
        {
          "internalType": "bool",
          "name": "",
          "type": "bool"
        }
      ],
      "stateMutability": "nonpayable",
      "type": "function"
    },
    {
      "inputs": [
        {
          "internalType": "address",
          "name": "spender",
          "type": "address"
        },
        {
          "internalType": "uint256",
          "name": "addedValue",
          "type": "uint256"
        }
      ],
      "name": "increaseAllowance",
      "outputs": [
        {
          "internalType": "bool",
          "name": "",
          "type": "bool"
        }
      ],
      "stateMutability": "nonpayable",
      "type": "function"
    },
    {
      "inputs": [],
      "name": "name",
      "outputs": [
        {
          "internalType": "string",
          "name": "",
          "type": "string"
        }
      ],
      "stateMutability": "view",
      "type": "function"
    },
    {
      "inputs": [],
      "name": "symbol",
      "outputs": [
        {
          "internalType": "string",
          "name": "",
          "type": "string"
        }
      ],
      "stateMutability": "view",
      "type": "function"
    },
    {
      "inputs": [],
      "name": "totalSupply",
      "outputs": [
        {
          "internalType": "uint256",
          "name": "",
          "type": "uint256"
        }
      ],
      "stateMutability": "view",
      "type": "function"
    },
    {
      "inputs": [
        {
          "internalType": "address",
          "name": "recipient",
          "type": "address"
        },
        {
          "internalType": "uint256",
          "name": "amount",
          "type": "uint256"
        }
      ],
      "name": "transfer",
      "outputs": [
        {
          "internalType": "bool",
          "name": "",
          "type": "bool"
        }
      ],
      "stateMutability": "nonpayable",
      "type": "function"
    },
    {
      "inputs": [
        {
          "internalType": "address",
          "name": "sender",
          "type": "address"
        },
        {
          "internalType": "address",
          "name": "recipient",
          "type": "address"
        },
        {
          "internalType": "uint256",
          "name": "amount",
          "type": "uint256"
        }
      ],
      "name": "transferFrom",
      "outputs": [
        {
          "internalType": "bool",
          "name": "",
          "type": "bool"
        }
      ],
      "stateMutability": "nonpayable",
      "type": "function"
    },
    {
      "inputs": [
        {
          "internalType": "uint256",
          "name": "amount",
          "type": "uint256"
        }
      ],
      "name": "mint",
      "outputs": [],
      "stateMutability": "nonpayable",
      "type": "function"
    }
  ],
  "bytecode": "0x60806040523480156200001157600080fd5b5060405162000ddf38038062000ddf833981810160405260408110156200003757600080fd5b81019080805160405193929190846401000000008211156200005857600080fd5b9083019060208201858111156200006e57600080fd5b82516401000000008111828201881017156200008957600080fd5b82525081516020918201929091019080838360005b83811015620000b85781810151838201526020016200009e565b50505050905090810190601f168015620000e65780820380516001836020036101000a031916815260200191505b50604052602001805160405193929190846401000000008211156200010a57600080fd5b9083019060208201858111156200012057600080fd5b82516401000000008111828201881017156200013b57600080fd5b82525081516020918201929091019080838360005b838110156200016a57818101518382015260200162000150565b50505050905090810190601f168015620001985780820380516001836020036101000a031916815260200191505b50604052505082518391508290620001b8906003906020850190620001e7565b508051620001ce906004906020840190620001e7565b50506005805460ff19166012179055506200028c915050565b828054600181600116156101000203166002900490600052602060002090601f016020900481019282601f106200022a57805160ff19168380011785556200025a565b828001600101855582156200025a579182015b828111156200025a5782518255916020019190600101906200023d565b50620002689291506200026c565b5090565b6200028991905b8082111562000268576000815560010162000273565b90565b610b43806200029c6000396000f3fe608060405234801561001057600080fd5b50600436106100b45760003560e01c806370a082311161007157806370a082311461021057806395d89b4114610236578063a0712d681461023e578063a457c2d71461025d578063a9059cbb14610289578063dd62ed3e146102b5576100b4565b806306fdde03146100b9578063095ea7b31461013657806318160ddd1461017657806323b872dd14610190578063313ce567146101c657806339509351146101e4575b600080fd5b6100c16102e3565b6040805160208082528351818301528351919283929083019185019080838360005b838110156100fb5781810151838201526020016100e3565b50505050905090810190601f1680156101285780820380516001836020036101000a031916815260200191505b509250505060405180910390f35b6101626004803603604081101561014c57600080fd5b506001600160a01b038135169060200135610379565b604080519115158252519081900360200190f35b61017e610396565b60408051918252519081900360200190f35b610162600480360360608110156101a657600080fd5b506001600160a01b0381358116916020810135909116906040013561039c565b6101ce610429565b6040805160ff9092168252519081900360200190f35b610162600480360360408110156101fa57600080fd5b506001600160a01b038135169060200135610432565b61017e6004803603602081101561022657600080fd5b50356001600160a01b0316610486565b6100c16104a1565b61025b6004803603602081101561025457600080fd5b5035610502565b005b6101626004803603604081101561027357600080fd5b506001600160a01b03813516906020013561050f565b6101626004803603604081101561029f57600080fd5b506001600160a01b03813516906020013561057d565b61017e600480360360408110156102cb57600080fd5b506001600160a01b0381358116916020013516610591565b60038054604080516020601f600260001961010060018816150201909516949094049384018190048102820181019092528281526060939092909183018282801561036f5780601f106103445761010080835404028352916020019161036f565b820191906000526020600020905b81548152906001019060200180831161035257829003601f168201915b5050505050905090565b600061038d6103866105bc565b84846105c0565b50600192915050565b60025490565b60006103a98484846106ac565b61041f846103b56105bc565b61041a85604051806060016040528060288152602001610a78602891396001600160a01b038a166000908152600160205260408120906103f36105bc565b6001600160a01b03168152602081019190915260400160002054919063ffffffff61081316565b6105c0565b5060019392505050565b60055460ff1690565b600061038d61043f6105bc565b8461041a85600160006104506105bc565b6001600160a01b03908116825260208083019390935260409182016000908120918c16815292529020549063ffffffff6108aa16565b6001600160a01b031660009081526020819052604090205490565b60048054604080516020601f600260001961010060018816150201909516949094049384018190048102820181019092528281526060939092909183018282801561036f5780601f106103445761010080835404028352916020019161036f565b61050c338261090b565b50565b600061038d61051c6105bc565b8461041a85604051806060016040528060258152602001610ae960259139600160006105466105bc565b6001600160a01b03908116825260208083019390935260409182016000908120918d1681529252902054919063ffffffff61081316565b600061038d61058a6105bc565b84846106ac565b6001600160a01b03918216600090815260016020908152604080832093909416825291909152205490565b3390565b6001600160a01b0383166106055760405162461bcd60e51b8152600401808060200182810382526024815260200180610ac56024913960400191505060405180910390fd5b6001600160a01b03821661064a5760405162461bcd60e51b8152600401808060200182810382526022815260200180610a306022913960400191505060405180910390fd5b6001600160a01b03808416600081815260016020908152604080832094871680845294825291829020859055815185815291517f8c5be1e5ebec7d5bd14f71427d1e84f3dd0314c0f7b2291e5b200ac8c7c3b9259281900390910190a3505050565b6001600160a01b0383166106f15760405162461bcd60e51b8152600401808060200182810382526025815260200180610aa06025913960400191505060405180910390fd5b6001600160a01b0382166107365760405162461bcd60e51b8152600401808060200182810382526023815260200180610a0d6023913960400191505060405180910390fd5b610741838383610a07565b61078481604051806060016040528060268152602001610a52602691396001600160a01b038616600090815260208190526040902054919063ffffffff61081316565b6001600160a01b0380851660009081526020819052604080822093909355908416815220546107b9908263ffffffff6108aa16565b6001600160a01b038084166000818152602081815260409182902094909455805185815290519193928716927fddf252ad1be2c89b69c2b068fc378daa952ba7f163c4a11628f55a4df523b3ef92918290030190a3505050565b600081848411156108a25760405162461bcd60e51b81526004018080602001828103825283818151815260200191508051906020019080838360005b8381101561086757818101518382015260200161084f565b50505050905090810190601f1680156108945780820380516001836020036101000a031916815260200191505b509250505060405180910390fd5b505050900390565b600082820183811015610904576040805162461bcd60e51b815260206004820152601b60248201527f536166654d6174683a206164646974696f6e206f766572666c6f770000000000604482015290519081900360640190fd5b9392505050565b6001600160a01b038216610966576040805162461bcd60e51b815260206004820152601f60248201527f45524332303a206d696e7420746f20746865207a65726f206164647265737300604482015290519081900360640190fd5b61097260008383610a07565b600254610985908263ffffffff6108aa16565b6002556001600160a01b0382166000908152602081905260409020546109b1908263ffffffff6108aa16565b6001600160a01b0383166000818152602081815260408083209490945583518581529351929391927fddf252ad1be2c89b69c2b068fc378daa952ba7f163c4a11628f55a4df523b3ef9281900390910190a35050565b50505056fe45524332303a207472616e7366657220746f20746865207a65726f206164647265737345524332303a20617070726f766520746f20746865207a65726f206164647265737345524332303a207472616e7366657220616d6f756e7420657863656564732062616c616e636545524332303a207472616e7366657220616d6f756e74206578636565647320616c6c6f77616e636545524332303a207472616e736665722066726f6d20746865207a65726f206164647265737345524332303a20617070726f76652066726f6d20746865207a65726f206164647265737345524332303a2064656372656173656420616c6c6f77616e63652062656c6f77207a65726fa2646970667358221220a13364d05c72189dc644cd9ac76426985267ecbbd9ebd067de7cef46c9487f1f64736f6c63430006060033",
  "source": "pragma solidity 0.6.6;\n\nimport \"../node_modules/openzeppelin-solidity/contracts/token/ERC20/ERC20.sol\";\n\ncontract Token is ERC20 {\n    constructor(\n        string memory tokenName,\n        string memory tokenSymbol\n    ) \n        ERC20(\n            tokenName,\n            tokenSymbol\n        ) \n        public \n    {\n\n    }\n\n    function mint(uint256 amount) public {\n        _mint(msg.sender, amount);\n    }\n}",
  "sourcePath": "/Users/veronicac/Desktop/projects/Ethereum/Educational/batchApprove/contracts/Token.sol",
  "compiler": {
    "name": "solc",
    "version": "0.6.6+commit.6c089d02.Emscripten.clang",
    "optimizer": true,
    "runs": 100
  },
  "schemaVersion": "2.3.3",
  "updatedAt": "2020-08-30T20:03:37.825Z"
}