{
  "contractName": "Creator",
  "abi": [
    {
      "inputs": [
        {
          "name": "_user",
          "type": "address"
        }
      ],
      "payable": false,
      "stateMutability": "nonpayable",
      "type": "constructor"
    },
    {
      "constant": false,
      "inputs": [
        {
          "name": "_contentTitle",
          "type": "string"
        },
        {
          "name": "_contentDescripton",
          "type": "string"
        }
      ],
      "name": "registerContent",
      "outputs": [
        {
          "name": "",
          "type": "uint256"
        }
      ],
      "payable": false,
      "stateMutability": "nonpayable",
      "type": "function"
    }
  ],
  "bytecode": "0x608060405234801561001057600080fd5b506040516020806102488339810180604052602081101561003057600080fd5b8101908080519060200190929190505050806000806101000a81548173ffffffffffffffffffffffffffffffffffffffff021916908373ffffffffffffffffffffffffffffffffffffffff160217905550506101b7806100916000396000f3fe608060405260043610610041576000357c0100000000000000000000000000000000000000000000000000000000900463ffffffff168063641a083d14610046575b600080fd5b34801561005257600080fd5b5061011f6004803603604081101561006957600080fd5b810190808035906020019064010000000081111561008657600080fd5b82018360208201111561009857600080fd5b803590602001918460018302840111640100000000831117156100ba57600080fd5b9091929391929390803590602001906401000000008111156100db57600080fd5b8201836020820111156100ed57600080fd5b8035906020019184600183028401116401000000008311171561010f57600080fd5b9091929391929390505050610135565b6040518082815260200191505060405180910390f35b60008085858585604051602001808585808284378083019250505083838082843780830192505050945050505050604051602081830303815290604052805190602001206001900490508091505094935050505056fea165627a7a723058204fb790de12d4a144e27291304ddcbcd0c9d2fe9cc8ecc04b0687f84e9a9f4cca0029",
  "source": "pragma solidity >=0.5.0 < 0.6.0;\r\n\r\ncontract Creator {\r\n    address private _userContract;\r\n    struct creatorDetails {\r\n        uint256[] content;\r\n    }\r\n\r\n    constructor(address _user) public {\r\n        _userContract = _user;\r\n    }\r\n\r\n    function registerContent(\r\n        string calldata _contentTitle,\r\n        string calldata _contentDescripton\r\n    )\r\n        external\r\n        returns(uint256)\r\n    {\r\n        uint256 tokenId = uint256(keccak256(abi.encodePacked(_contentTitle, _contentDescripton)));\r\n\r\n        return tokenId;\r\n    }\r\n}",
  "sourcePath": "C:/Users/Veronica Coutts/Desktop/Desktop/Work/Ethereum/Ethereum/Projects/Xctly/v0.01/contracts/Creator.sol",
  "compiler": {
    "name": "solc",
    "version": "0.5.0+commit.1d4f565a.Emscripten.clang"
  },
  "schemaVersion": "3.0.1",
  "updatedAt": "2019-03-16T19:39:44.915Z",
  "devdoc": {
    "methods": {}
  },
  "userdoc": {
    "methods": {}
  }
}